{
  "contractName": "ChainNotes",
  "abi": [
    {
      "anonymous": false,
      "inputs": [
        {
          "indexed": false,
          "internalType": "uint256",
          "name": "id",
          "type": "uint256"
        },
        {
          "indexed": false,
          "internalType": "address",
          "name": "owner",
          "type": "address"
        },
        {
          "indexed": false,
          "internalType": "string",
          "name": "content",
          "type": "string"
        },
        {
          "indexed": false,
          "internalType": "string",
          "name": "category",
          "type": "string"
        },
        {
          "indexed": false,
          "internalType": "string[]",
          "name": "tags",
          "type": "string[]"
        },
        {
          "indexed": false,
          "internalType": "uint256",
          "name": "timestamp",
          "type": "uint256"
        }
      ],
      "name": "NoteCreated",
      "type": "event"
    },
    {
      "anonymous": false,
      "inputs": [
        {
          "indexed": false,
          "internalType": "uint256",
          "name": "id",
          "type": "uint256"
        }
      ],
      "name": "NoteDeleted",
      "type": "event"
    },
    {
      "anonymous": false,
      "inputs": [
        {
          "indexed": false,
          "internalType": "uint256",
          "name": "id",
          "type": "uint256"
        },
        {
          "indexed": false,
          "internalType": "string",
          "name": "newContent",
          "type": "string"
        },
        {
          "indexed": false,
          "internalType": "string",
          "name": "newCategory",
          "type": "string"
        },
        {
          "indexed": false,
          "internalType": "string[]",
          "name": "newTags",
          "type": "string[]"
        },
        {
          "indexed": false,
          "internalType": "uint256",
          "name": "timestamp",
          "type": "uint256"
        }
      ],
      "name": "NoteUpdated",
      "type": "event"
    },
    {
      "inputs": [],
      "name": "noteCount",
      "outputs": [
        {
          "internalType": "uint256",
          "name": "",
          "type": "uint256"
        }
      ],
      "stateMutability": "view",
      "type": "function",
      "constant": true
    },
    {
      "inputs": [
        {
          "internalType": "uint256",
          "name": "",
          "type": "uint256"
        }
      ],
      "name": "notes",
      "outputs": [
        {
          "internalType": "uint256",
          "name": "id",
          "type": "uint256"
        },
        {
          "internalType": "string",
          "name": "content",
          "type": "string"
        },
        {
          "internalType": "uint256",
          "name": "timestamp",
          "type": "uint256"
        },
        {
          "internalType": "address",
          "name": "owner",
          "type": "address"
        },
        {
          "internalType": "bool",
          "name": "isDeleted",
          "type": "bool"
        },
        {
          "internalType": "string",
          "name": "category",
          "type": "string"
        }
      ],
      "stateMutability": "view",
      "type": "function",
      "constant": true
    },
    {
      "inputs": [
        {
          "internalType": "address",
          "name": "",
          "type": "address"
        },
        {
          "internalType": "uint256",
          "name": "",
          "type": "uint256"
        }
      ],
      "name": "userNotes",
      "outputs": [
        {
          "internalType": "uint256",
          "name": "",
          "type": "uint256"
        }
      ],
      "stateMutability": "view",
      "type": "function",
      "constant": true
    },
    {
      "inputs": [
        {
          "internalType": "string",
          "name": "_content",
          "type": "string"
        },
        {
          "internalType": "string",
          "name": "_category",
          "type": "string"
        },
        {
          "internalType": "string[]",
          "name": "_tags",
          "type": "string[]"
        }
      ],
      "name": "createNote",
      "outputs": [],
      "stateMutability": "nonpayable",
      "type": "function"
    },
    {
      "inputs": [
        {
          "internalType": "uint256",
          "name": "_id",
          "type": "uint256"
        },
        {
          "internalType": "string",
          "name": "_newContent",
          "type": "string"
        },
        {
          "internalType": "string",
          "name": "_newCategory",
          "type": "string"
        },
        {
          "internalType": "string[]",
          "name": "_newTags",
          "type": "string[]"
        }
      ],
      "name": "updateNote",
      "outputs": [],
      "stateMutability": "nonpayable",
      "type": "function"
    },
    {
      "inputs": [
        {
          "internalType": "uint256",
          "name": "_id",
          "type": "uint256"
        }
      ],
      "name": "deleteNote",
      "outputs": [],
      "stateMutability": "nonpayable",
      "type": "function"
    },
    {
      "inputs": [],
      "name": "getUserNotes",
      "outputs": [
        {
          "components": [
            {
              "internalType": "uint256",
              "name": "id",
              "type": "uint256"
            },
            {
              "internalType": "string",
              "name": "content",
              "type": "string"
            },
            {
              "internalType": "uint256",
              "name": "timestamp",
              "type": "uint256"
            },
            {
              "internalType": "address",
              "name": "owner",
              "type": "address"
            },
            {
              "internalType": "bool",
              "name": "isDeleted",
              "type": "bool"
            },
            {
              "internalType": "string",
              "name": "category",
              "type": "string"
            },
            {
              "internalType": "string[]",
              "name": "tags",
              "type": "string[]"
            }
          ],
          "internalType": "struct ChainNotes.Note[]",
          "name": "",
          "type": "tuple[]"
        }
      ],
      "stateMutability": "view",
      "type": "function",
      "constant": true
    }
  ],
  "bytecode": "0x60806040526000805534801561001457600080fd5b50611233806100246000396000f3fe608060405234801561001057600080fd5b506004361061007d5760003560e01c8063a6c403681161005b578063a6c40368146100d8578063b4c780a3146100eb578063c47177f414610100578063eb0283521461011357600080fd5b8063317a4c761461008257806361c3a7e61461009e57806394a22b1d146100c3575b600080fd5b61008b60005481565b6040519081526020015b60405180910390f35b6100b16100ac366004610b37565b610126565b60405161009596959493929190610b96565b6100d66100d1366004610d42565b61027d565b005b6100d66100e6366004610dd4565b6103ce565b6100f36104b9565b6040516100959190610eb1565b6100d661010e366004610b37565b610926565b61008b610121366004610f89565b610a41565b60016020819052600091825260409091208054918101805461014790610fc1565b80601f016020809104026020016040519081016040528092919081815260200182805461017390610fc1565b80156101c05780601f10610195576101008083540402835291602001916101c0565b820191906000526020600020905b8154815290600101906020018083116101a357829003601f168201915b5050505060028301546003840154600485018054949592946001600160a01b0383169450600160a01b90920460ff1692916101fa90610fc1565b80601f016020809104026020016040519081016040528092919081815260200182805461022690610fc1565b80156102735780601f1061024857610100808354040283529160200191610273565b820191906000526020600020905b81548152906001019060200180831161025657829003601f168201915b5050505050905086565b60008481526001602052604090206003015484906001600160a01b031633146102e25760405162461bcd60e51b81526020600482015260126024820152712737ba103a3432903737ba329037bbb732b960711b60448201526064015b60405180910390fd5b600081815260016020526040902060030154600160a01b900460ff161561033d5760405162461bcd60e51b815260206004820152600f60248201526e139bdd19481a5cc819195b195d1959608a1b60448201526064016102d9565b600085815260016020819052604090912090810161035b868261104a565b5042600282015560048101610370858261104a565b5082516103869060058301906020860190610a72565b507f0e2f2a019fa34cee897fd2895d7c9f78b958f75fd8af8dcf8bb19f29c37133ea86868686426040516103be95949392919061110a565b60405180910390a1505050505050565b6000805490806103dd8361115c565b909155505060008054808252600160208190526040909220908155908101610405858261104a565b504260028201556003810180546001600160a81b0319163360ff60a01b191617905560048101610435848261104a565b50815161044b9060058301906020850190610a72565b50336000818152600260209081526040808320835481546001810183559185529284200191909155905490517f9fa291a40a3e88785d9b348a60292ed45ad4bb738469dfa8e389bf4d941969e3926104ab92918890889088904290611183565b60405180910390a150505050565b33600090815260026020908152604080832080548251818502810185019093528083526060949383018282801561050f57602002820191906000526020600020905b8154815260200190600101908083116104fb575b505050505090506000805b82518110156105845760016000848381518110610539576105396111e7565b6020026020010151815260200190815260200160002060030160149054906101000a900460ff16610572578161056e8161115c565b9250505b8061057c8161115c565b91505061051a565b5060008167ffffffffffffffff8111156105a0576105a0610bec565b60405190808252806020026020018201604052801561061c57816020015b6106096040518060e0016040528060008152602001606081526020016000815260200160006001600160a01b0316815260200160001515815260200160608152602001606081525090565b8152602001906001900390816105be5790505b5090506000805b845181101561091c5760016000868381518110610642576106426111e7565b6020026020010151815260200190815260200160002060030160149054906101000a900460ff1661090a5760016000868381518110610683576106836111e7565b602002602001015181526020019081526020016000206040518060e0016040529081600082015481526020016001820180546106be90610fc1565b80601f01602080910402602001604051908101604052809291908181526020018280546106ea90610fc1565b80156107375780601f1061070c57610100808354040283529160200191610737565b820191906000526020600020905b81548152906001019060200180831161071a57829003601f168201915b50505091835250506002820154602082015260038201546001600160a01b0381166040830152600160a01b900460ff161515606082015260048201805460809092019161078390610fc1565b80601f01602080910402602001604051908101604052809291908181526020018280546107af90610fc1565b80156107fc5780601f106107d1576101008083540402835291602001916107fc565b820191906000526020600020905b8154815290600101906020018083116107df57829003601f168201915b5050505050815260200160058201805480602002602001604051908101604052809291908181526020016000905b828210156108d657838290600052602060002001805461084990610fc1565b80601f016020809104026020016040519081016040528092919081815260200182805461087590610fc1565b80156108c25780601f10610897576101008083540402835291602001916108c2565b820191906000526020600020905b8154815290600101906020018083116108a557829003601f168201915b50505050508152602001906001019061082a565b50505050815250508383815181106108f0576108f06111e7565b602002602001018190525081806109069061115c565b9250505b806109148161115c565b915050610623565b5090949350505050565b60008181526001602052604090206003015481906001600160a01b031633146109865760405162461bcd60e51b81526020600482015260126024820152712737ba103a3432903737ba329037bbb732b960711b60448201526064016102d9565b600081815260016020526040902060030154600160a01b900460ff16156109e15760405162461bcd60e51b815260206004820152600f60248201526e139bdd19481a5cc819195b195d1959608a1b60448201526064016102d9565b60008281526001602052604090819020600301805460ff60a01b1916600160a01b179055517f89af6ba62ab348dc535a3187c267090f834c868a3820cd552a7110c3dc3eedb890610a359084815260200190565b60405180910390a15050565b60026020528160005260406000208181548110610a5d57600080fd5b90600052602060002001600091509150505481565b828054828255906000526020600020908101928215610ab8579160200282015b82811115610ab85782518290610aa8908261104a565b5091602001919060010190610a92565b50610ac4929150610ac8565b5090565b80821115610ac4576000610adc8282610ae5565b50600101610ac8565b508054610af190610fc1565b6000825580601f10610b01575050565b601f016020900490600052602060002090810190610b1f9190610b22565b50565b5b80821115610ac45760008155600101610b23565b600060208284031215610b4957600080fd5b5035919050565b6000815180845260005b81811015610b7657602081850181015186830182015201610b5a565b506000602082860101526020601f19601f83011685010191505092915050565b86815260c060208201526000610baf60c0830188610b50565b604083018790526001600160a01b0386166060840152841515608084015282810360a0840152610bdf8185610b50565b9998505050505050505050565b634e487b7160e01b600052604160045260246000fd5b604051601f8201601f1916810167ffffffffffffffff81118282101715610c2b57610c2b610bec565b604052919050565b600082601f830112610c4457600080fd5b813567ffffffffffffffff811115610c5e57610c5e610bec565b610c71601f8201601f1916602001610c02565b818152846020838601011115610c8657600080fd5b816020850160208301376000918101602001919091529392505050565b600082601f830112610cb457600080fd5b8135602067ffffffffffffffff80831115610cd157610cd1610bec565b8260051b610ce0838201610c02565b9384528581018301938381019088861115610cfa57600080fd5b84880192505b85831015610d3657823584811115610d185760008081fd5b610d268a87838c0101610c33565b8352509184019190840190610d00565b98975050505050505050565b60008060008060808587031215610d5857600080fd5b84359350602085013567ffffffffffffffff80821115610d7757600080fd5b610d8388838901610c33565b94506040870135915080821115610d9957600080fd5b610da588838901610c33565b93506060870135915080821115610dbb57600080fd5b50610dc887828801610ca3565b91505092959194509250565b600080600060608486031215610de957600080fd5b833567ffffffffffffffff80821115610e0157600080fd5b610e0d87838801610c33565b94506020860135915080821115610e2357600080fd5b610e2f87838801610c33565b93506040860135915080821115610e4557600080fd5b50610e5286828701610ca3565b9150509250925092565b600081518084526020808501808196508360051b8101915082860160005b85811015610ea4578284038952610e92848351610b50565b98850198935090840190600101610e7a565b5091979650505050505050565b60006020808301818452808551808352604092508286019150828160051b87010184880160005b83811015610f7b57603f19898403018552815160e08151855288820151818a870152610f0682870182610b50565b838a0151878b01526060808501516001600160a01b03169088015260808085015115159088015260a080850151888303828a01529193509150610f498382610b50565b9250505060c08083015192508582038187015250610f678183610e5c565b968901969450505090860190600101610ed8565b509098975050505050505050565b60008060408385031215610f9c57600080fd5b82356001600160a01b0381168114610fb357600080fd5b946020939093013593505050565b600181811c90821680610fd557607f821691505b602082108103610ff557634e487b7160e01b600052602260045260246000fd5b50919050565b601f82111561104557600081815260208120601f850160051c810160208610156110225750805b601f850160051c820191505b818110156110415782815560010161102e565b5050505b505050565b815167ffffffffffffffff81111561106457611064610bec565b611078816110728454610fc1565b84610ffb565b602080601f8311600181146110ad57600084156110955750858301515b600019600386901b1c1916600185901b178555611041565b600085815260208120601f198616915b828110156110dc578886015182559484019460019091019084016110bd565b50858210156110fa5787850151600019600388901b60f8161c191681555b5050505050600190811b01905550565b85815260a06020820152600061112360a0830187610b50565b82810360408401526111358187610b50565b905082810360608401526111498186610e5c565b9150508260808301529695505050505050565b60006001820161117c57634e487b7160e01b600052601160045260246000fd5b5060010190565b8681526001600160a01b038616602082015260c0604082018190526000906111ad90830187610b50565b82810360608401526111bf8187610b50565b905082810360808401526111d38186610e5c565b9150508260a0830152979650505050505050565b634e487b7160e01b600052603260045260246000fdfea26469706673582212206fe5c393d3506a7b950367e0f22bb5ad065047a9b3546688466013cdfbce893c64736f6c63430008130033",
  "immutableReferences": {},
  "source": "// SPDX-License-Identifier: MIT\r\npragma solidity ^0.8.0;\r\n\r\ncontract ChainNotes {\r\n    struct Note {\r\n        uint id;\r\n        string content;\r\n        uint timestamp;\r\n        address owner;\r\n        bool isDeleted;\r\n        string category;\r\n        string[] tags;\r\n    }\r\n\r\n    uint public noteCount = 0;\r\n    mapping(uint => Note) public notes;\r\n    mapping(address => uint[]) public userNotes;\r\n\r\n    event NoteCreated(uint id, address owner, string content, string category, string[] tags, uint timestamp);\r\n    event NoteUpdated(uint id, string newContent, string newCategory, string[] newTags, uint timestamp);\r\n    event NoteDeleted(uint id);\r\n\r\n    modifier onlyOwner(uint _id) {\r\n        require(notes[_id].owner == msg.sender, \"Not the note owner\");\r\n        require(!notes[_id].isDeleted, \"Note is deleted\");\r\n        _;\r\n    }\r\n\r\n    function createNote(\r\n        string memory _content,\r\n        string memory _category,\r\n        string[] memory _tags\r\n    ) public {\r\n        noteCount++;\r\n\r\n        Note storage note = notes[noteCount];\r\n        note.id = noteCount;\r\n        note.content = _content;\r\n        note.timestamp = block.timestamp;\r\n        note.owner = msg.sender;\r\n        note.isDeleted = false;\r\n        note.category = _category;\r\n        note.tags = _tags;\r\n\r\n        userNotes[msg.sender].push(noteCount);\r\n        emit NoteCreated(noteCount, msg.sender, _content, _category, _tags, block.timestamp);\r\n    }\r\n\r\n    function updateNote(\r\n        uint _id,\r\n        string memory _newContent,\r\n        string memory _newCategory,\r\n        string[] memory _newTags\r\n    ) public onlyOwner(_id) {\r\n        Note storage note = notes[_id];\r\n        note.content = _newContent;\r\n        note.timestamp = block.timestamp;\r\n        note.category = _newCategory;\r\n        note.tags = _newTags;\r\n\r\n        emit NoteUpdated(_id, _newContent, _newCategory, _newTags, block.timestamp);\r\n    }\r\n\r\n    function deleteNote(uint _id) public onlyOwner(_id) {\r\n        notes[_id].isDeleted = true;\r\n        emit NoteDeleted(_id);\r\n    }\r\n\r\n    function getUserNotes() public view returns (Note[] memory) {\r\n        uint[] memory userNoteIds = userNotes[msg.sender];\r\n        uint activeCount = 0;\r\n\r\n        // Count active notes to size the array correctly\r\n        for (uint i = 0; i < userNoteIds.length; i++) {\r\n            if (!notes[userNoteIds[i]].isDeleted) {\r\n                activeCount++;\r\n            }\r\n        }\r\n\r\n        Note[] memory result = new Note[](activeCount);\r\n        uint currentIndex = 0;\r\n\r\n        // Populate the array with active notes\r\n        for (uint i = 0; i < userNoteIds.length; i++) {\r\n            if (!notes[userNoteIds[i]].isDeleted) {\r\n                result[currentIndex] = notes[userNoteIds[i]];\r\n                currentIndex++;\r\n            }\r\n        }\r\n\r\n        return result;\r\n    }\r\n}\r\n",
  "sourcePath": "C:\\MySpace\\Repos\\ChainsNote\\contracts\\ChainNotes.sol",
  "compiler": {
    "name": "solc",
    "version": "0.8.19+commit.7dd6d404.Emscripten.clang"
  },
  "schemaVersion": "3.4.16",
  "updatedAt": "2026-02-23T18:17:17.991Z",
  "networkType": "ethereum",
  "devdoc": {
    "kind": "dev",
    "methods": {},
    "version": 1
  },
  "userdoc": {
    "kind": "user",
    "methods": {},
    "version": 1
  }
}