{
  "contractName": "ChainNotes",
  "abi": [
    {
      "anonymous": false,
      "inputs": [
        {
          "indexed": false,
          "internalType": "uint256",
          "name": "id",
          "type": "uint256"
        },
        {
          "indexed": false,
          "internalType": "address",
          "name": "owner",
          "type": "address"
        },
        {
          "indexed": false,
          "internalType": "string",
          "name": "content",
          "type": "string"
        },
        {
          "indexed": false,
          "internalType": "uint256",
          "name": "timestamp",
          "type": "uint256"
        },
        {
          "indexed": false,
          "internalType": "bool",
          "name": "isPublic",
          "type": "bool"
        }
      ],
      "name": "NoteCreated",
      "type": "event"
    },
    {
      "anonymous": false,
      "inputs": [
        {
          "indexed": false,
          "internalType": "uint256",
          "name": "id",
          "type": "uint256"
        }
      ],
      "name": "NoteDeleted",
      "type": "event"
    },
    {
      "anonymous": false,
      "inputs": [
        {
          "indexed": false,
          "internalType": "uint256",
          "name": "id",
          "type": "uint256"
        },
        {
          "indexed": false,
          "internalType": "address",
          "name": "liker",
          "type": "address"
        },
        {
          "indexed": false,
          "internalType": "bool",
          "name": "liked",
          "type": "bool"
        }
      ],
      "name": "NoteLiked",
      "type": "event"
    },
    {
      "anonymous": false,
      "inputs": [
        {
          "indexed": false,
          "internalType": "uint256",
          "name": "id",
          "type": "uint256"
        },
        {
          "indexed": false,
          "internalType": "address",
          "name": "tipper",
          "type": "address"
        },
        {
          "indexed": false,
          "internalType": "uint256",
          "name": "amount",
          "type": "uint256"
        }
      ],
      "name": "NoteTipped",
      "type": "event"
    },
    {
      "anonymous": false,
      "inputs": [
        {
          "indexed": false,
          "internalType": "uint256",
          "name": "id",
          "type": "uint256"
        },
        {
          "indexed": false,
          "internalType": "string",
          "name": "newContent",
          "type": "string"
        },
        {
          "indexed": false,
          "internalType": "uint256",
          "name": "timestamp",
          "type": "uint256"
        },
        {
          "indexed": false,
          "internalType": "bool",
          "name": "isPublic",
          "type": "bool"
        }
      ],
      "name": "NoteUpdated",
      "type": "event"
    },
    {
      "inputs": [
        {
          "internalType": "uint256",
          "name": "",
          "type": "uint256"
        },
        {
          "internalType": "address",
          "name": "",
          "type": "address"
        }
      ],
      "name": "hasLiked",
      "outputs": [
        {
          "internalType": "bool",
          "name": "",
          "type": "bool"
        }
      ],
      "stateMutability": "view",
      "type": "function",
      "constant": true
    },
    {
      "inputs": [],
      "name": "noteCount",
      "outputs": [
        {
          "internalType": "uint256",
          "name": "",
          "type": "uint256"
        }
      ],
      "stateMutability": "view",
      "type": "function",
      "constant": true
    },
    {
      "inputs": [
        {
          "internalType": "uint256",
          "name": "",
          "type": "uint256"
        }
      ],
      "name": "notes",
      "outputs": [
        {
          "internalType": "uint256",
          "name": "id",
          "type": "uint256"
        },
        {
          "internalType": "string",
          "name": "content",
          "type": "string"
        },
        {
          "internalType": "string",
          "name": "category",
          "type": "string"
        },
        {
          "internalType": "uint256",
          "name": "timestamp",
          "type": "uint256"
        },
        {
          "internalType": "address",
          "name": "owner",
          "type": "address"
        },
        {
          "internalType": "bool",
          "name": "isDeleted",
          "type": "bool"
        },
        {
          "internalType": "bool",
          "name": "isPublic",
          "type": "bool"
        },
        {
          "internalType": "uint256",
          "name": "likeCount",
          "type": "uint256"
        },
        {
          "internalType": "uint256",
          "name": "totalTips",
          "type": "uint256"
        }
      ],
      "stateMutability": "view",
      "type": "function",
      "constant": true
    },
    {
      "inputs": [
        {
          "internalType": "uint256",
          "name": "",
          "type": "uint256"
        }
      ],
      "name": "publicNoteIds",
      "outputs": [
        {
          "internalType": "uint256",
          "name": "",
          "type": "uint256"
        }
      ],
      "stateMutability": "view",
      "type": "function",
      "constant": true
    },
    {
      "inputs": [
        {
          "internalType": "address",
          "name": "",
          "type": "address"
        },
        {
          "internalType": "uint256",
          "name": "",
          "type": "uint256"
        }
      ],
      "name": "userNotes",
      "outputs": [
        {
          "internalType": "uint256",
          "name": "",
          "type": "uint256"
        }
      ],
      "stateMutability": "view",
      "type": "function",
      "constant": true
    },
    {
      "inputs": [
        {
          "internalType": "string",
          "name": "_content",
          "type": "string"
        },
        {
          "internalType": "string",
          "name": "_category",
          "type": "string"
        },
        {
          "internalType": "string[]",
          "name": "_tags",
          "type": "string[]"
        },
        {
          "internalType": "bool",
          "name": "_isPublic",
          "type": "bool"
        }
      ],
      "name": "createNote",
      "outputs": [],
      "stateMutability": "nonpayable",
      "type": "function"
    },
    {
      "inputs": [],
      "name": "getUserNotes",
      "outputs": [
        {
          "components": [
            {
              "internalType": "uint256",
              "name": "id",
              "type": "uint256"
            },
            {
              "internalType": "string",
              "name": "content",
              "type": "string"
            },
            {
              "internalType": "string",
              "name": "category",
              "type": "string"
            },
            {
              "internalType": "string[]",
              "name": "tags",
              "type": "string[]"
            },
            {
              "internalType": "uint256",
              "name": "timestamp",
              "type": "uint256"
            },
            {
              "internalType": "address",
              "name": "owner",
              "type": "address"
            },
            {
              "internalType": "bool",
              "name": "isDeleted",
              "type": "bool"
            },
            {
              "internalType": "bool",
              "name": "isPublic",
              "type": "bool"
            },
            {
              "internalType": "uint256",
              "name": "likeCount",
              "type": "uint256"
            },
            {
              "internalType": "uint256",
              "name": "totalTips",
              "type": "uint256"
            }
          ],
          "internalType": "struct ChainNotes.Note[]",
          "name": "",
          "type": "tuple[]"
        }
      ],
      "stateMutability": "view",
      "type": "function",
      "constant": true
    },
    {
      "inputs": [
        {
          "internalType": "uint256",
          "name": "_id",
          "type": "uint256"
        },
        {
          "internalType": "string",
          "name": "_content",
          "type": "string"
        },
        {
          "internalType": "string",
          "name": "_category",
          "type": "string"
        },
        {
          "internalType": "string[]",
          "name": "_tags",
          "type": "string[]"
        },
        {
          "internalType": "bool",
          "name": "_isPublic",
          "type": "bool"
        }
      ],
      "name": "updateNote",
      "outputs": [],
      "stateMutability": "nonpayable",
      "type": "function"
    },
    {
      "inputs": [
        {
          "internalType": "uint256",
          "name": "_id",
          "type": "uint256"
        }
      ],
      "name": "deleteNote",
      "outputs": [],
      "stateMutability": "nonpayable",
      "type": "function"
    }
  ],
  "bytecode": "0x60806040526000805534801561001457600080fd5b5061147c806100246000396000f3fe608060405234801561001057600080fd5b50600436106100935760003560e01c8063a252efa811610066578063a252efa81461012f578063b4c780a314610142578063c47177f414610157578063ce146bf81461016a578063eb0283521461017d57600080fd5b8063317a4c761461009857806361c3a7e6146100b45780638fb7092c146100dc57806393ade4c61461011a575b600080fd5b6100a160005481565b6040519081526020015b60405180910390f35b6100c76100c2366004610d1b565b610190565b6040516100ab99989796959493929190610d7a565b61010a6100ea366004610e02565b600360209081526000928352604080842090915290825290205460ff1681565b60405190151581526020016100ab565b61012d610128366004610f94565b6102fb565b005b6100a161013d366004610d1b565b6104d5565b61014a6104f6565b6040516100ab919061107f565b61012d610165366004610d1b565b6109a0565b61012d61017836600461117f565b610ac0565b6100a161018b366004611222565b610c25565b6001602081905260009182526040909120805491810180546101b19061124c565b80601f01602080910402602001604051908101604052809291908181526020018280546101dd9061124c565b801561022a5780601f106101ff5761010080835404028352916020019161022a565b820191906000526020600020905b81548152906001019060200180831161020d57829003601f168201915b50505050509080600201805461023f9061124c565b80601f016020809104026020016040519081016040528092919081815260200182805461026b9061124c565b80156102b85780601f1061028d576101008083540402835291602001916102b8565b820191906000526020600020905b81548152906001019060200180831161029b57829003601f168201915b50505050600483015460058401546006850154600790950154939491936001600160a01b038216935060ff600160a01b8304811693600160a81b90930416919089565b60008054908061030a83611286565b90915550506040805161014081018252600080548083526020808401898152848601899052606085018890524260808601523360a086015260c0850184905286151560e08601526101008501849052610120850184905291835260019081905293909120825181559051919290919082019061038690826112fc565b506040820151600282019061039b90826112fc565b50606082015180516103b7916003840191602090910190610c56565b506080820151600482015560a082015160058201805460c085015160e08601511515600160a81b0260ff60a81b19911515600160a01b026001600160a81b03199093166001600160a01b039095169490941791909117169190911790556101008201516006820155610120909101516007909101553360009081526002602090815260408220825481546001810183559184529190922090910155801561048e57600080546004805460018101825592527f8a35acfbc15ff81a39ae7d344fd709f28e8600b4aa8c65c6b64bfe7fe36bd19b909101555b7f415f3d8c88281220b2a7f79e2bff79cdcf63be3e39c4603a76cdf6439670df55600054338642856040516104c79594939291906113bc565b60405180910390a150505050565b600481815481106104e557600080fd5b600091825260209091200154905081565b33600090815260026020908152604080832080548251818502810185019093528083526060949383018282801561054c57602002820191906000526020600020905b815481526020019060010190808311610538575b505050505090506000805b82518110156105c15760016000848381518110610576576105766113ff565b6020026020010151815260200190815260200160002060050160149054906101000a900460ff166105af57816105ab81611286565b9250505b806105b981611286565b915050610557565b5060008167ffffffffffffffff8111156105dd576105dd610e2e565b60405190808252806020026020018201604052801561067157816020015b61065e604051806101400160405280600081526020016060815260200160608152602001606081526020016000815260200160006001600160a01b0316815260200160001515815260200160001515815260200160008152602001600081525090565b8152602001906001900390816105fb5790505b5090506000805b84518110156109965760016000868381518110610697576106976113ff565b6020026020010151815260200190815260200160002060050160149054906101000a900460ff1661098457600160008683815181106106d8576106d86113ff565b6020026020010151815260200190815260200160002060405180610140016040529081600082015481526020016001820180546107149061124c565b80601f01602080910402602001604051908101604052809291908181526020018280546107409061124c565b801561078d5780601f106107625761010080835404028352916020019161078d565b820191906000526020600020905b81548152906001019060200180831161077057829003601f168201915b505050505081526020016002820180546107a69061124c565b80601f01602080910402602001604051908101604052809291908181526020018280546107d29061124c565b801561081f5780601f106107f45761010080835404028352916020019161081f565b820191906000526020600020905b81548152906001019060200180831161080257829003601f168201915b5050505050815260200160038201805480602002602001604051908101604052809291908181526020016000905b828210156108f957838290600052602060002001805461086c9061124c565b80601f01602080910402602001604051908101604052809291908181526020018280546108989061124c565b80156108e55780601f106108ba576101008083540402835291602001916108e5565b820191906000526020600020905b8154815290600101906020018083116108c857829003601f168201915b50505050508152602001906001019061084d565b505050908252506004820154602082015260058201546001600160a01b038116604083015260ff600160a01b8204811615156060840152600160a81b9091041615156080820152600682015460a082015260079091015460c090910152835184908490811061096a5761096a6113ff565b6020026020010181905250818061098090611286565b9250505b8061098e81611286565b915050610678565b5090949350505050565b60008181526001602052604090206005015481906001600160a01b03163314610a055760405162461bcd60e51b81526020600482015260126024820152712737ba103a3432903737ba329037bbb732b960711b60448201526064015b60405180910390fd5b600081815260016020526040902060050154600160a01b900460ff1615610a605760405162461bcd60e51b815260206004820152600f60248201526e139bdd19481a5cc819195b195d1959608a1b60448201526064016109fc565b60008281526001602052604090819020600501805460ff60a01b1916600160a01b179055517f89af6ba62ab348dc535a3187c267090f834c868a3820cd552a7110c3dc3eedb890610ab49084815260200190565b60405180910390a15050565b60008581526001602052604090206005015485906001600160a01b03163314610b205760405162461bcd60e51b81526020600482015260126024820152712737ba103a3432903737ba329037bbb732b960711b60448201526064016109fc565b600081815260016020526040902060050154600160a01b900460ff1615610b7b5760405162461bcd60e51b815260206004820152600f60248201526e139bdd19481a5cc819195b195d1959608a1b60448201526064016109fc565b6000868152600160208190526040909120908101610b9987826112fc565b5060028101610ba886826112fc565b508351610bbe9060038301906020870190610c56565b50426004820181905560058201805460ff60a81b1916600160a81b861515021790556040517f9b9d35a0f7b2f673cfd294d03a35cfd71d9b752dd908add251903fc24777f89391610c14918a918a918890611415565b60405180910390a150505050505050565b60026020528160005260406000208181548110610c4157600080fd5b90600052602060002001600091509150505481565b828054828255906000526020600020908101928215610c9c579160200282015b82811115610c9c5782518290610c8c90826112fc565b5091602001919060010190610c76565b50610ca8929150610cac565b5090565b80821115610ca8576000610cc08282610cc9565b50600101610cac565b508054610cd59061124c565b6000825580601f10610ce5575050565b601f016020900490600052602060002090810190610d039190610d06565b50565b5b80821115610ca85760008155600101610d07565b600060208284031215610d2d57600080fd5b5035919050565b6000815180845260005b81811015610d5a57602081850181015186830182015201610d3e565b506000602082860101526020601f19601f83011685010191505092915050565b60006101208b8352806020840152610d948184018c610d34565b90508281036040840152610da8818b610d34565b606084019990995250506001600160a01b0395909516608086015292151560a085015290151560c084015260e0830152610100909101529392505050565b80356001600160a01b0381168114610dfd57600080fd5b919050565b60008060408385031215610e1557600080fd5b82359150610e2560208401610de6565b90509250929050565b634e487b7160e01b600052604160045260246000fd5b604051601f8201601f1916810167ffffffffffffffff81118282101715610e6d57610e6d610e2e565b604052919050565b600082601f830112610e8657600080fd5b813567ffffffffffffffff811115610ea057610ea0610e2e565b610eb3601f8201601f1916602001610e44565b818152846020838601011115610ec857600080fd5b816020850160208301376000918101602001919091529392505050565b600082601f830112610ef657600080fd5b8135602067ffffffffffffffff80831115610f1357610f13610e2e565b8260051b610f22838201610e44565b9384528581018301938381019088861115610f3c57600080fd5b84880192505b85831015610f7857823584811115610f5a5760008081fd5b610f688a87838c0101610e75565b8352509184019190840190610f42565b98975050505050505050565b80358015158114610dfd57600080fd5b60008060008060808587031215610faa57600080fd5b843567ffffffffffffffff80821115610fc257600080fd5b610fce88838901610e75565b95506020870135915080821115610fe457600080fd5b610ff088838901610e75565b9450604087013591508082111561100657600080fd5b5061101387828801610ee5565b92505061102260608601610f84565b905092959194509250565b6000815180845260208085019450848260051b860182860160005b85811015611072578383038952611060838351610d34565b98850198925090840190600101611048565b5090979650505050505050565b60006020808301818452808551808352604092508286019150828160051b87010184880160005b8381101561117157603f1989840301855281516101408151855288820151818a8701526110d582870182610d34565b91505087820151858203898701526110ed8282610d34565b91505060608083015186830382880152611107838261102d565b92505050608080830151818701525060a080830151611130828801826001600160a01b03169052565b505060c08281015115159086015260e080830151151590860152610100808301519086015261012091820151919094015293860193908601906001016110a6565b509098975050505050505050565b600080600080600060a0868803121561119757600080fd5b85359450602086013567ffffffffffffffff808211156111b657600080fd5b6111c289838a01610e75565b955060408801359150808211156111d857600080fd5b6111e489838a01610e75565b945060608801359150808211156111fa57600080fd5b5061120788828901610ee5565b92505061121660808701610f84565b90509295509295909350565b6000806040838503121561123557600080fd5b61123e83610de6565b946020939093013593505050565b600181811c9082168061126057607f821691505b60208210810361128057634e487b7160e01b600052602260045260246000fd5b50919050565b6000600182016112a657634e487b7160e01b600052601160045260246000fd5b5060010190565b601f8211156112f757600081815260208120601f850160051c810160208610156112d45750805b601f850160051c820191505b818110156112f3578281556001016112e0565b5050505b505050565b815167ffffffffffffffff81111561131657611316610e2e565b61132a81611324845461124c565b846112ad565b602080601f83116001811461135f57600084156113475750858301515b600019600386901b1c1916600185901b1785556112f3565b600085815260208120601f198616915b8281101561138e5788860151825594840194600190910190840161136f565b50858210156113ac5787850151600019600388901b60f8161c191681555b5050505050600190811b01905550565b8581526001600160a01b038516602082015260a0604082018190526000906113e690830186610d34565b6060830194909452509015156080909101529392505050565b634e487b7160e01b600052603260045260246000fd5b84815260806020820152600061142e6080830186610d34565b6040830194909452509015156060909101529291505056fea26469706673582212200295ae71731fe43e47097e5ea0d27307e396d1dc6b6fe767fcb02bacef56698c64736f6c63430008130033",
  "immutableReferences": {},
  "source": "// SPDX-License-Identifier: MIT\r\npragma solidity ^0.8.0;\r\n\r\ncontract ChainNotes {\r\n    struct Note {\r\n        uint id;\r\n        string content;\r\n        string category;\r\n        string[] tags;\r\n        uint timestamp;\r\n        address owner;\r\n        bool isDeleted;\r\n        bool isPublic;\r\n        uint likeCount;\r\n        uint totalTips;\r\n    }\r\n\r\n    struct NoteWithLikeStatus {\r\n        Note note;\r\n        bool hasLikedStatus;\r\n    }\r\n\r\n    uint public noteCount = 0;\r\n    mapping(uint => Note) public notes;\r\n    mapping(address => uint[]) public userNotes;\r\n    mapping(uint => mapping(address => bool)) public hasLiked;\r\n    uint[] public publicNoteIds;\r\n\r\n    event NoteCreated(uint id, address owner, string content, uint timestamp, bool isPublic);\r\n    event NoteUpdated(uint id, string newContent, uint timestamp, bool isPublic);\r\n    event NoteDeleted(uint id);\r\n    event NoteLiked(uint id, address liker, bool liked);\r\n    event NoteTipped(uint id, address tipper, uint amount);\r\n\r\n    modifier onlyOwner(uint _id) {\r\n        require(notes[_id].owner == msg.sender, \"Not the note owner\");\r\n        require(!notes[_id].isDeleted, \"Note is deleted\");\r\n        _;\r\n    }\r\n\r\n    function createNote(string memory _content, string memory _category, string[] memory _tags, bool _isPublic) public {\r\n        noteCount++;\r\n        notes[noteCount] = Note(noteCount, _content, _category, _tags, block.timestamp, msg.sender, false, _isPublic, 0, 0);\r\n        userNotes[msg.sender].push(noteCount);\r\n        if (_isPublic) {\r\n            publicNoteIds.push(noteCount);\r\n        }\r\n        emit NoteCreated(noteCount, msg.sender, _content, block.timestamp, _isPublic);\r\n    }\r\n\r\n    function getUserNotes() public view returns (Note[] memory) {\r\n        uint[] memory userNoteIds = userNotes[msg.sender];\r\n        \r\n        uint count = 0;\r\n        for(uint i = 0; i < userNoteIds.length; i++) {\r\n            if (!notes[userNoteIds[i]].isDeleted) {\r\n                count++;\r\n            }\r\n        }\r\n\r\n        Note[] memory _notes = new Note[](count);\r\n        uint index = 0;\r\n        for(uint i = 0; i < userNoteIds.length; i++) {\r\n            if (!notes[userNoteIds[i]].isDeleted) {\r\n                _notes[index] = notes[userNoteIds[i]];\r\n                index++;\r\n            }\r\n        }\r\n        return _notes;\r\n    }\r\n\r\n    function updateNote(uint _id, string memory _content, string memory _category, string[] memory _tags, bool _isPublic) public onlyOwner(_id) {\r\n        Note storage note = notes[_id];\r\n        note.content = _content;\r\n        note.category = _category;\r\n        note.tags = _tags;\r\n        note.timestamp = block.timestamp;\r\n        note.isPublic = _isPublic;\r\n        \r\n        emit NoteUpdated(_id, _content, block.timestamp, _isPublic);\r\n    }\r\n\r\n    function deleteNote(uint _id) public onlyOwner(_id) {\r\n        notes[_id].isDeleted = true;\r\n        emit NoteDeleted(_id);\r\n    }\r\n}\r\n",
  "sourcePath": "C:\\MySpace\\Repos\\ChainsNote\\contracts\\ChainNotes.sol",
  "compiler": {
    "name": "solc",
    "version": "0.8.19+commit.7dd6d404.Emscripten.clang"
  },
  "schemaVersion": "3.4.16",
  "updatedAt": "2026-02-25T13:15:16.390Z",
  "networkType": "ethereum",
  "devdoc": {
    "kind": "dev",
    "methods": {},
    "version": 1
  },
  "userdoc": {
    "kind": "user",
    "methods": {},
    "version": 1
  }
}